{
  "_format": "hh-sol-artifact-1",
  "contractName": "MedicalRecord",
  "sourceName": "contracts/MedicalRecord.sol",
  "abi": [
    {
      "anonymous": false,
      "inputs": [
        {
          "indexed": false,
          "internalType": "uint256",
          "name": "patientId",
          "type": "uint256"
        },
        {
          "indexed": false,
          "internalType": "address",
          "name": "requester",
          "type": "address"
        },
        {
          "indexed": false,
          "internalType": "uint256",
          "name": "expirationTime",
          "type": "uint256"
        }
      ],
      "name": "AccessApproved",
      "type": "event"
    },
    {
      "anonymous": false,
      "inputs": [
        {
          "indexed": false,
          "internalType": "uint256",
          "name": "patientId",
          "type": "uint256"
        },
        {
          "indexed": false,
          "internalType": "address",
          "name": "requester",
          "type": "address"
        }
      ],
      "name": "AccessDenied",
      "type": "event"
    },
    {
      "anonymous": false,
      "inputs": [
        {
          "indexed": false,
          "internalType": "uint256",
          "name": "patientId",
          "type": "uint256"
        },
        {
          "indexed": false,
          "internalType": "address",
          "name": "requester",
          "type": "address"
        },
        {
          "indexed": false,
          "internalType": "string",
          "name": "reason",
          "type": "string"
        }
      ],
      "name": "AccessRequested",
      "type": "event"
    },
    {
      "anonymous": false,
      "inputs": [
        {
          "indexed": false,
          "internalType": "uint256",
          "name": "recordId",
          "type": "uint256"
        },
        {
          "indexed": true,
          "internalType": "address",
          "name": "owner",
          "type": "address"
        },
        {
          "indexed": false,
          "internalType": "uint256",
          "name": "timestamp",
          "type": "uint256"
        },
        {
          "indexed": false,
          "internalType": "string",
          "name": "name",
          "type": "string"
        },
        {
          "indexed": false,
          "internalType": "uint256",
          "name": "age",
          "type": "uint256"
        },
        {
          "indexed": false,
          "internalType": "string",
          "name": "gender",
          "type": "string"
        },
        {
          "indexed": false,
          "internalType": "string",
          "name": "bloodType",
          "type": "string"
        },
        {
          "indexed": false,
          "internalType": "string",
          "name": "dataHash",
          "type": "string"
        }
      ],
      "name": "MedicalRecords__AddRecord",
      "type": "event"
    },
    {
      "inputs": [
        {
          "internalType": "uint256",
          "name": "",
          "type": "uint256"
        },
        {
          "internalType": "address",
          "name": "",
          "type": "address"
        }
      ],
      "name": "accessRequests",
      "outputs": [
        {
          "internalType": "address",
          "name": "requester",
          "type": "address"
        },
        {
          "internalType": "uint256",
          "name": "patientId",
          "type": "uint256"
        },
        {
          "internalType": "enum MedicalRecord.AccessStatus",
          "name": "status",
          "type": "uint8"
        },
        {
          "internalType": "string",
          "name": "reason",
          "type": "string"
        },
        {
          "internalType": "uint256",
          "name": "timestamp",
          "type": "uint256"
        },
        {
          "internalType": "uint256",
          "name": "expirationTime",
          "type": "uint256"
        }
      ],
      "stateMutability": "view",
      "type": "function"
    },
    {
      "inputs": [
        {
          "internalType": "address",
          "name": "owner",
          "type": "address"
        },
        {
          "internalType": "string",
          "name": "name",
          "type": "string"
        },
        {
          "internalType": "uint256",
          "name": "age",
          "type": "uint256"
        },
        {
          "internalType": "string",
          "name": "gender",
          "type": "string"
        },
        {
          "internalType": "string",
          "name": "bloodType",
          "type": "string"
        },
        {
          "internalType": "string",
          "name": "dataHash",
          "type": "string"
        }
      ],
      "name": "addPatient",
      "outputs": [],
      "stateMutability": "nonpayable",
      "type": "function"
    },
    {
      "inputs": [
        {
          "internalType": "uint256",
          "name": "patientId",
          "type": "uint256"
        },
        {
          "internalType": "address",
          "name": "requester",
          "type": "address"
        },
        {
          "internalType": "uint256",
          "name": "durationInDays",
          "type": "uint256"
        }
      ],
      "name": "approveAccess",
      "outputs": [],
      "stateMutability": "nonpayable",
      "type": "function"
    },
    {
      "inputs": [
        {
          "internalType": "uint256",
          "name": "",
          "type": "uint256"
        },
        {
          "internalType": "address",
          "name": "",
          "type": "address"
        }
      ],
      "name": "approvedAccess",
      "outputs": [
        {
          "internalType": "bool",
          "name": "",
          "type": "bool"
        }
      ],
      "stateMutability": "view",
      "type": "function"
    },
    {
      "inputs": [
        {
          "internalType": "uint256",
          "name": "patientId",
          "type": "uint256"
        },
        {
          "internalType": "address",
          "name": "requester",
          "type": "address"
        }
      ],
      "name": "denyAccess",
      "outputs": [],
      "stateMutability": "nonpayable",
      "type": "function"
    },
    {
      "inputs": [
        {
          "internalType": "uint256",
          "name": "_recordId",
          "type": "uint256"
        }
      ],
      "name": "getAge",
      "outputs": [
        {
          "internalType": "uint256",
          "name": "",
          "type": "uint256"
        }
      ],
      "stateMutability": "view",
      "type": "function"
    },
    {
      "inputs": [],
      "name": "getAllPatients",
      "outputs": [
        {
          "components": [
            {
              "internalType": "uint256",
              "name": "recordId",
              "type": "uint256"
            },
            {
              "internalType": "address",
              "name": "owner",
              "type": "address"
            },
            {
              "internalType": "uint256",
              "name": "timestamp",
              "type": "uint256"
            },
            {
              "internalType": "string",
              "name": "name",
              "type": "string"
            },
            {
              "internalType": "uint256",
              "name": "age",
              "type": "uint256"
            },
            {
              "internalType": "string",
              "name": "gender",
              "type": "string"
            },
            {
              "internalType": "string",
              "name": "bloodType",
              "type": "string"
            },
            {
              "internalType": "string",
              "name": "dataHash",
              "type": "string"
            }
          ],
          "internalType": "struct MedicalRecord.Patient[]",
          "name": "",
          "type": "tuple[]"
        }
      ],
      "stateMutability": "view",
      "type": "function"
    },
    {
      "inputs": [
        {
          "internalType": "uint256",
          "name": "_recordId",
          "type": "uint256"
        }
      ],
      "name": "getBloodType",
      "outputs": [
        {
          "internalType": "string",
          "name": "",
          "type": "string"
        }
      ],
      "stateMutability": "view",
      "type": "function"
    },
    {
      "inputs": [
        {
          "internalType": "uint256",
          "name": "_recordId",
          "type": "uint256"
        }
      ],
      "name": "getGender",
      "outputs": [
        {
          "internalType": "string",
          "name": "",
          "type": "string"
        }
      ],
      "stateMutability": "view",
      "type": "function"
    },
    {
      "inputs": [
        {
          "internalType": "uint256",
          "name": "_recordId",
          "type": "uint256"
        }
      ],
      "name": "getName",
      "outputs": [
        {
          "internalType": "string",
          "name": "",
          "type": "string"
        }
      ],
      "stateMutability": "view",
      "type": "function"
    },
    {
      "inputs": [
        {
          "internalType": "address",
          "name": "patientAddress",
          "type": "address"
        }
      ],
      "name": "getPatientByAddress",
      "outputs": [
        {
          "internalType": "uint256",
          "name": "",
          "type": "uint256"
        },
        {
          "internalType": "address",
          "name": "",
          "type": "address"
        },
        {
          "internalType": "uint256",
          "name": "",
          "type": "uint256"
        },
        {
          "internalType": "string",
          "name": "",
          "type": "string"
        },
        {
          "internalType": "uint256",
          "name": "",
          "type": "uint256"
        },
        {
          "internalType": "string",
          "name": "",
          "type": "string"
        },
        {
          "internalType": "string",
          "name": "",
          "type": "string"
        },
        {
          "internalType": "string",
          "name": "",
          "type": "string"
        }
      ],
      "stateMutability": "view",
      "type": "function"
    },
    {
      "inputs": [],
      "name": "getPatientCount",
      "outputs": [
        {
          "internalType": "uint256",
          "name": "",
          "type": "uint256"
        }
      ],
      "stateMutability": "view",
      "type": "function"
    },
    {
      "inputs": [
        {
          "internalType": "uint256",
          "name": "patientId",
          "type": "uint256"
        }
      ],
      "name": "getPatientData",
      "outputs": [
        {
          "internalType": "uint256",
          "name": "",
          "type": "uint256"
        },
        {
          "internalType": "address",
          "name": "",
          "type": "address"
        },
        {
          "internalType": "uint256",
          "name": "",
          "type": "uint256"
        },
        {
          "internalType": "string",
          "name": "",
          "type": "string"
        },
        {
          "internalType": "uint256",
          "name": "",
          "type": "uint256"
        },
        {
          "internalType": "string",
          "name": "",
          "type": "string"
        },
        {
          "internalType": "string",
          "name": "",
          "type": "string"
        },
        {
          "internalType": "string",
          "name": "",
          "type": "string"
        }
      ],
      "stateMutability": "view",
      "type": "function"
    },
    {
      "inputs": [],
      "name": "getRecordId",
      "outputs": [
        {
          "internalType": "uint256",
          "name": "",
          "type": "uint256"
        }
      ],
      "stateMutability": "view",
      "type": "function"
    },
    {
      "inputs": [
        {
          "internalType": "uint256",
          "name": "_recordId",
          "type": "uint256"
        }
      ],
      "name": "getTimeStamp",
      "outputs": [
        {
          "internalType": "uint256",
          "name": "",
          "type": "uint256"
        }
      ],
      "stateMutability": "view",
      "type": "function"
    },
    {
      "inputs": [
        {
          "internalType": "uint256",
          "name": "patientId",
          "type": "uint256"
        },
        {
          "internalType": "address",
          "name": "entity",
          "type": "address"
        }
      ],
      "name": "hasAccess",
      "outputs": [
        {
          "internalType": "bool",
          "name": "",
          "type": "bool"
        }
      ],
      "stateMutability": "view",
      "type": "function"
    },
    {
      "inputs": [
        {
          "internalType": "uint256",
          "name": "",
          "type": "uint256"
        }
      ],
      "name": "patients",
      "outputs": [
        {
          "internalType": "uint256",
          "name": "recordId",
          "type": "uint256"
        },
        {
          "internalType": "address",
          "name": "owner",
          "type": "address"
        },
        {
          "internalType": "uint256",
          "name": "timestamp",
          "type": "uint256"
        },
        {
          "internalType": "string",
          "name": "name",
          "type": "string"
        },
        {
          "internalType": "uint256",
          "name": "age",
          "type": "uint256"
        },
        {
          "internalType": "string",
          "name": "gender",
          "type": "string"
        },
        {
          "internalType": "string",
          "name": "bloodType",
          "type": "string"
        },
        {
          "internalType": "string",
          "name": "dataHash",
          "type": "string"
        }
      ],
      "stateMutability": "view",
      "type": "function"
    },
    {
      "inputs": [
        {
          "internalType": "address",
          "name": "",
          "type": "address"
        }
      ],
      "name": "patientsbyaddress",
      "outputs": [
        {
          "internalType": "uint256",
          "name": "recordId",
          "type": "uint256"
        },
        {
          "internalType": "address",
          "name": "owner",
          "type": "address"
        },
        {
          "internalType": "uint256",
          "name": "timestamp",
          "type": "uint256"
        },
        {
          "internalType": "string",
          "name": "name",
          "type": "string"
        },
        {
          "internalType": "uint256",
          "name": "age",
          "type": "uint256"
        },
        {
          "internalType": "string",
          "name": "gender",
          "type": "string"
        },
        {
          "internalType": "string",
          "name": "bloodType",
          "type": "string"
        },
        {
          "internalType": "string",
          "name": "dataHash",
          "type": "string"
        }
      ],
      "stateMutability": "view",
      "type": "function"
    },
    {
      "inputs": [],
      "name": "recordId",
      "outputs": [
        {
          "internalType": "uint256",
          "name": "",
          "type": "uint256"
        }
      ],
      "stateMutability": "view",
      "type": "function"
    },
    {
      "inputs": [
        {
          "internalType": "uint256",
          "name": "patientId",
          "type": "uint256"
        },
        {
          "internalType": "string",
          "name": "_reason",
          "type": "string"
        }
      ],
      "name": "requestAccess",
      "outputs": [],
      "stateMutability": "nonpayable",
      "type": "function"
    }
  ],
  "bytecode": "0x608060405234801561001057600080fd5b506133e6806100206000396000f3fe608060405234801561001057600080fd5b506004361061012c5760003560e01c806393119a83116100ad578063c190665b11610071578063c190665b146103c2578063ced14198146103e0578063dab52a7614610410578063e06d2eb51461042c578063f7dfe22b1461045c5761012c565b806393119a83146102d157806399055dda14610308578063b5f8bbe914610326578063b810793e1461035b578063ba5c03351461038b5761012c565b80635a39077c116100f45780635a39077c146101e75780636747f391146102035780636b8ff574146102335780637d8e34f3146102635780638e30e37d1461029a5761012c565b80630c7b5167146101315780630e37008a1461014d57806318a231a91461017d5780633eb4ac571461019b5780635578a850146101b7575b600080fd5b61014b600480360381019061014691906125f2565b61047a565b005b61016760048036038101906101629190612645565b6106e9565b6040516101749190612681565b60405180910390f35b610185610709565b60405161019291906128da565b60405180910390f35b6101b560048036038101906101b09190612a31565b610afc565b005b6101d160048036038101906101cc9190612b2e565b610ed1565b6040516101de9190612b89565b60405180910390f35b61020160048036038101906101fc9190612b2e565b610f00565b005b61021d60048036038101906102189190612645565b611146565b60405161022a9190612681565b60405180910390f35b61024d60048036038101906102489190612645565b611166565b60405161025a9190612bee565b60405180910390f35b61027d60048036038101906102789190612645565b61120e565b604051610291989796959493929190612c1f565b60405180910390f35b6102b460048036038101906102af9190612cb9565b61150c565b6040516102c8989796959493929190612c1f565b60405180910390f35b6102eb60048036038101906102e69190612645565b611794565b6040516102ff989796959493929190612c1f565b60405180910390f35b610310611a1c565b60405161031d9190612681565b60405180910390f35b610340600480360381019061033b9190612b2e565b611a25565b60405161035296959493929190612d5d565b60405180910390f35b61037560048036038101906103709190612645565b611b23565b6040516103829190612bee565b60405180910390f35b6103a560048036038101906103a09190612cb9565b611bcb565b6040516103b9989796959493929190612c1f565b60405180910390f35b6103ca611f28565b6040516103d79190612681565b60405180910390f35b6103fa60048036038101906103f59190612b2e565b611f35565b6040516104079190612b89565b60405180910390f35b61042a60048036038101906104259190612dc5565b61215d565b005b61044660048036038101906104419190612645565b61239e565b6040516104539190612bee565b60405180910390f35b610464612446565b6040516104719190612681565b60405180910390f35b823373ffffffffffffffffffffffffffffffffffffffff166001600083815260200190815260200160002060010160009054906101000a900473ffffffffffffffffffffffffffffffffffffffff1673ffffffffffffffffffffffffffffffffffffffff161461051f576040517f08c379a000000000000000000000000000000000000000000000000000000000815260040161051690612e93565b60405180910390fd5b60006004600086815260200190815260200160002060008573ffffffffffffffffffffffffffffffffffffffff1673ffffffffffffffffffffffffffffffffffffffff16815260200190815260200160002090506000600281111561058757610586612ce6565b5b8160020160009054906101000a900460ff1660028111156105ab576105aa612ce6565b5b146105eb576040517f08c379a00000000000000000000000000000000000000000000000000000000081526004016105e290612eff565b60405180910390fd5b60018160020160006101000a81548160ff0219169083600281111561061357610612612ce6565b5b021790555062015180836106279190612f4e565b426106329190612fa8565b816005018190555060016005600087815260200190815260200160002060008673ffffffffffffffffffffffffffffffffffffffff1673ffffffffffffffffffffffffffffffffffffffff16815260200190815260200160002060006101000a81548160ff0219169083151502179055507f48ae3ba146201cdafd628e5f29e78614c4aad583007b13d64e161955bb59833e858583600501546040516106da93929190612ffe565b60405180910390a15050505050565b600060016000838152602001908152602001600020600401549050919050565b6060600060038054905067ffffffffffffffff81111561072c5761072b612906565b5b60405190808252806020026020018201604052801561076557816020015b61075261244c565b81526020019060019003908161074a5790505b50905060005b600380549050811015610af45760006003828154811061078e5761078d613035565b5b9060005260206000200160009054906101000a900473ffffffffffffffffffffffffffffffffffffffff169050600260008273ffffffffffffffffffffffffffffffffffffffff1673ffffffffffffffffffffffffffffffffffffffff16815260200190815260200160002060405180610100016040529081600082015481526020016001820160009054906101000a900473ffffffffffffffffffffffffffffffffffffffff1673ffffffffffffffffffffffffffffffffffffffff1673ffffffffffffffffffffffffffffffffffffffff1681526020016002820154815260200160038201805461088090613093565b80601f01602080910402602001604051908101604052809291908181526020018280546108ac90613093565b80156108f95780601f106108ce576101008083540402835291602001916108f9565b820191906000526020600020905b8154815290600101906020018083116108dc57829003601f168201915b505050505081526020016004820154815260200160058201805461091c90613093565b80601f016020809104026020016040519081016040528092919081815260200182805461094890613093565b80156109955780601f1061096a57610100808354040283529160200191610995565b820191906000526020600020905b81548152906001019060200180831161097857829003601f168201915b505050505081526020016006820180546109ae90613093565b80601f01602080910402602001604051908101604052809291908181526020018280546109da90613093565b8015610a275780601f106109fc57610100808354040283529160200191610a27565b820191906000526020600020905b815481529060010190602001808311610a0a57829003601f168201915b50505050508152602001600782018054610a4090613093565b80601f0160208091040260200160405190810160405280929190818152602001828054610a6c90613093565b8015610ab95780601f10610a8e57610100808354040283529160200191610ab9565b820191906000526020600020905b815481529060010190602001808311610a9c57829003601f168201915b505050505081525050838381518110610ad557610ad4613035565b5b6020026020010181905250508080610aec906130c5565b91505061076b565b508091505090565b6000855111610b40576040517f08c379a0000000000000000000000000000000000000000000000000000000008152600401610b379061315a565b60405180910390fd5b600084118015610b505750609684105b610b8f576040517f08c379a0000000000000000000000000000000000000000000000000000000008152600401610b86906131c6565b60405180910390fd5b600080815480929190610ba1906130c5565b9190505550600060405180610100016040528060005481526020018873ffffffffffffffffffffffffffffffffffffffff1681526020014281526020018781526020018681526020018581526020018481526020018381525090508060016000805481526020019081526020016000206000820151816000015560208201518160010160006101000a81548173ffffffffffffffffffffffffffffffffffffffff021916908373ffffffffffffffffffffffffffffffffffffffff160217905550604082015181600201556060820151816003019080519060200190610c889291906124a7565b506080820151816004015560a0820151816005019080519060200190610caf9291906124a7565b5060c0820151816006019080519060200190610ccc9291906124a7565b5060e0820151816007019080519060200190610ce99291906124a7565b5090505080600260008973ffffffffffffffffffffffffffffffffffffffff1673ffffffffffffffffffffffffffffffffffffffff1681526020019081526020016000206000820151816000015560208201518160010160006101000a81548173ffffffffffffffffffffffffffffffffffffffff021916908373ffffffffffffffffffffffffffffffffffffffff160217905550604082015181600201556060820151816003019080519060200190610da49291906124a7565b506080820151816004015560a0820151816005019080519060200190610dcb9291906124a7565b5060c0820151816006019080519060200190610de89291906124a7565b5060e0820151816007019080519060200190610e059291906124a7565b509050506003879080600181540180825580915050600190039060005260206000200160009091909190916101000a81548173ffffffffffffffffffffffffffffffffffffffff021916908373ffffffffffffffffffffffffffffffffffffffff1602179055508673ffffffffffffffffffffffffffffffffffffffff167f65683cb10ac70a7daad237d4a156ee8c0d0df65cf78d766f14c34e6736d08670600054428989898989604051610ec097969594939291906131e6565b60405180910390a250505050505050565b60056020528160005260406000206020528060005260406000206000915091509054906101000a900460ff1681565b813373ffffffffffffffffffffffffffffffffffffffff166001600083815260200190815260200160002060010160009054906101000a900473ffffffffffffffffffffffffffffffffffffffff1673ffffffffffffffffffffffffffffffffffffffff1614610fa5576040517f08c379a0000000000000000000000000000000000000000000000000000000008152600401610f9c90612e93565b60405180910390fd5b60006004600085815260200190815260200160002060008473ffffffffffffffffffffffffffffffffffffffff1673ffffffffffffffffffffffffffffffffffffffff16815260200190815260200160002090506000600281111561100d5761100c612ce6565b5b8160020160009054906101000a900460ff16600281111561103157611030612ce6565b5b14611071576040517f08c379a000000000000000000000000000000000000000000000000000000000815260040161106890612eff565b60405180910390fd5b60028160020160006101000a81548160ff0219169083600281111561109957611098612ce6565b5b021790555060006005600086815260200190815260200160002060008573ffffffffffffffffffffffffffffffffffffffff1673ffffffffffffffffffffffffffffffffffffffff16815260200190815260200160002060006101000a81548160ff0219169083151502179055507fc14f92ab7742ff4ef0fc5f742c674ac214ad556477ed325129ce3166489665508484604051611138929190613271565b60405180910390a150505050565b600060016000838152602001908152602001600020600201549050919050565b606060016000838152602001908152602001600020600301805461118990613093565b80601f01602080910402602001604051908101604052809291908181526020018280546111b590613093565b80156112025780601f106111d757610100808354040283529160200191611202565b820191906000526020600020905b8154815290600101906020018083116111e557829003601f168201915b50505050509050919050565b60008060006060600060608060606112268933611f35565b611265576040517f08c379a000000000000000000000000000000000000000000000000000000000815260040161125c906132e6565b60405180910390fd5b6000600160008b8152602001908152602001600020905080600001548160010160009054906101000a900473ffffffffffffffffffffffffffffffffffffffff1682600201548360030184600401548560050186600601876007018480546112cc90613093565b80601f01602080910402602001604051908101604052809291908181526020018280546112f890613093565b80156113455780601f1061131a57610100808354040283529160200191611345565b820191906000526020600020905b81548152906001019060200180831161132857829003601f168201915b5050505050945082805461135890613093565b80601f016020809104026020016040519081016040528092919081815260200182805461138490613093565b80156113d15780601f106113a6576101008083540402835291602001916113d1565b820191906000526020600020905b8154815290600101906020018083116113b457829003601f168201915b505050505092508180546113e490613093565b80601f016020809104026020016040519081016040528092919081815260200182805461141090613093565b801561145d5780601f106114325761010080835404028352916020019161145d565b820191906000526020600020905b81548152906001019060200180831161144057829003601f168201915b5050505050915080805461147090613093565b80601f016020809104026020016040519081016040528092919081815260200182805461149c90613093565b80156114e95780601f106114be576101008083540402835291602001916114e9565b820191906000526020600020905b8154815290600101906020018083116114cc57829003601f168201915b505050505090509850985098509850985098509850985050919395975091939597565b60026020528060005260406000206000915090508060000154908060010160009054906101000a900473ffffffffffffffffffffffffffffffffffffffff169080600201549080600301805461156190613093565b80601f016020809104026020016040519081016040528092919081815260200182805461158d90613093565b80156115da5780601f106115af576101008083540402835291602001916115da565b820191906000526020600020905b8154815290600101906020018083116115bd57829003601f168201915b5050505050908060040154908060050180546115f590613093565b80601f016020809104026020016040519081016040528092919081815260200182805461162190613093565b801561166e5780601f106116435761010080835404028352916020019161166e565b820191906000526020600020905b81548152906001019060200180831161165157829003601f168201915b50505050509080600601805461168390613093565b80601f01602080910402602001604051908101604052809291908181526020018280546116af90613093565b80156116fc5780601f106116d1576101008083540402835291602001916116fc565b820191906000526020600020905b8154815290600101906020018083116116df57829003601f168201915b50505050509080600701805461171190613093565b80601f016020809104026020016040519081016040528092919081815260200182805461173d90613093565b801561178a5780601f1061175f5761010080835404028352916020019161178a565b820191906000526020600020905b81548152906001019060200180831161176d57829003601f168201915b5050505050905088565b60016020528060005260406000206000915090508060000154908060010160009054906101000a900473ffffffffffffffffffffffffffffffffffffffff16908060020154908060030180546117e990613093565b80601f016020809104026020016040519081016040528092919081815260200182805461181590613093565b80156118625780601f1061183757610100808354040283529160200191611862565b820191906000526020600020905b81548152906001019060200180831161184557829003601f168201915b50505050509080600401549080600501805461187d90613093565b80601f01602080910402602001604051908101604052809291908181526020018280546118a990613093565b80156118f65780601f106118cb576101008083540402835291602001916118f6565b820191906000526020600020905b8154815290600101906020018083116118d957829003601f168201915b50505050509080600601805461190b90613093565b80601f016020809104026020016040519081016040528092919081815260200182805461193790613093565b80156119845780601f1061195957610100808354040283529160200191611984565b820191906000526020600020905b81548152906001019060200180831161196757829003601f168201915b50505050509080600701805461199990613093565b80601f01602080910402602001604051908101604052809291908181526020018280546119c590613093565b8015611a125780601f106119e757610100808354040283529160200191611a12565b820191906000526020600020905b8154815290600101906020018083116119f557829003601f168201915b5050505050905088565b60008054905090565b6004602052816000526040600020602052806000526040600020600091509150508060000160009054906101000a900473ffffffffffffffffffffffffffffffffffffffff16908060010154908060020160009054906101000a900460ff1690806003018054611a9490613093565b80601f0160208091040260200160405190810160405280929190818152602001828054611ac090613093565b8015611b0d5780601f10611ae257610100808354040283529160200191611b0d565b820191906000526020600020905b815481529060010190602001808311611af057829003601f168201915b5050505050908060040154908060050154905086565b6060600160008381526020019081526020016000206006018054611b4690613093565b80601f0160208091040260200160405190810160405280929190818152602001828054611b7290613093565b8015611bbf5780601f10611b9457610100808354040283529160200191611bbf565b820191906000526020600020905b815481529060010190602001808311611ba257829003601f168201915b50505050509050919050565b60008060006060600060608060606000600260008b73ffffffffffffffffffffffffffffffffffffffff1673ffffffffffffffffffffffffffffffffffffffff16815260200190815260200160002060405180610100016040529081600082015481526020016001820160009054906101000a900473ffffffffffffffffffffffffffffffffffffffff1673ffffffffffffffffffffffffffffffffffffffff1673ffffffffffffffffffffffffffffffffffffffff16815260200160028201548152602001600382018054611ca090613093565b80601f0160208091040260200160405190810160405280929190818152602001828054611ccc90613093565b8015611d195780601f10611cee57610100808354040283529160200191611d19565b820191906000526020600020905b815481529060010190602001808311611cfc57829003601f168201915b5050505050815260200160048201548152602001600582018054611d3c90613093565b80601f0160208091040260200160405190810160405280929190818152602001828054611d6890613093565b8015611db55780601f10611d8a57610100808354040283529160200191611db5565b820191906000526020600020905b815481529060010190602001808311611d9857829003601f168201915b50505050508152602001600682018054611dce90613093565b80601f0160208091040260200160405190810160405280929190818152602001828054611dfa90613093565b8015611e475780601f10611e1c57610100808354040283529160200191611e47565b820191906000526020600020905b815481529060010190602001808311611e2a57829003601f168201915b50505050508152602001600782018054611e6090613093565b80601f0160208091040260200160405190810160405280929190818152602001828054611e8c90613093565b8015611ed95780601f10611eae57610100808354040283529160200191611ed9565b820191906000526020600020905b815481529060010190602001808311611ebc57829003601f168201915b5050505050815250509050806000015181602001518260400151836060015184608001518560a001518660c001518760e001519850985098509850985098509850985050919395975091939597565b6000600380549050905090565b60006005600084815260200190815260200160002060008373ffffffffffffffffffffffffffffffffffffffff1673ffffffffffffffffffffffffffffffffffffffff16815260200190815260200160002060009054906101000a900460ff16156121525760006004600085815260200190815260200160002060008473ffffffffffffffffffffffffffffffffffffffff1673ffffffffffffffffffffffffffffffffffffffff1681526020019081526020016000206040518060c00160405290816000820160009054906101000a900473ffffffffffffffffffffffffffffffffffffffff1673ffffffffffffffffffffffffffffffffffffffff1673ffffffffffffffffffffffffffffffffffffffff168152602001600182015481526020016002820160009054906101000a900460ff16600281111561207c5761207b612ce6565b5b600281111561208e5761208d612ce6565b5b81526020016003820180546120a290613093565b80601f01602080910402602001604051908101604052809291908181526020018280546120ce90613093565b801561211b5780601f106120f05761010080835404028352916020019161211b565b820191906000526020600020905b8154815290600101906020018083116120fe57829003601f168201915b50505050508152602001600482015481526020016005820154815250509050428160a001511115612150576001915050612157565b505b600190505b92915050565b600073ffffffffffffffffffffffffffffffffffffffff166001600084815260200190815260200160002060010160009054906101000a900473ffffffffffffffffffffffffffffffffffffffff1673ffffffffffffffffffffffffffffffffffffffff161415612203576040517f08c379a00000000000000000000000000000000000000000000000000000000081526004016121fa90613352565b60405180910390fd5b6040518060c001604052803373ffffffffffffffffffffffffffffffffffffffff1681526020018381526020016000600281111561224457612243612ce6565b5b815260200182815260200142815260200160008152506004600084815260200190815260200160002060003373ffffffffffffffffffffffffffffffffffffffff1673ffffffffffffffffffffffffffffffffffffffff16815260200190815260200160002060008201518160000160006101000a81548173ffffffffffffffffffffffffffffffffffffffff021916908373ffffffffffffffffffffffffffffffffffffffff1602179055506020820151816001015560408201518160020160006101000a81548160ff0219169083600281111561232657612325612ce6565b5b021790555060608201518160030190805190602001906123479291906124a7565b506080820151816004015560a082015181600501559050507fa964b0d5b0ae345368407279f158ce01fbdafd867ce29bc1a4cf30fef68fdd8c82338360405161239293929190613372565b60405180910390a15050565b60606001600083815260200190815260200160002060050180546123c190613093565b80601f01602080910402602001604051908101604052809291908181526020018280546123ed90613093565b801561243a5780601f1061240f5761010080835404028352916020019161243a565b820191906000526020600020905b81548152906001019060200180831161241d57829003601f168201915b50505050509050919050565b60005481565b60405180610100016040528060008152602001600073ffffffffffffffffffffffffffffffffffffffff1681526020016000815260200160608152602001600081526020016060815260200160608152602001606081525090565b8280546124b390613093565b90600052602060002090601f0160209004810192826124d5576000855561251c565b82601f106124ee57805160ff191683800117855561251c565b8280016001018555821561251c579182015b8281111561251b578251825591602001919060010190612500565b5b509050612529919061252d565b5090565b5b8082111561254657600081600090555060010161252e565b5090565b6000604051905090565b600080fd5b600080fd5b6000819050919050565b6125718161255e565b811461257c57600080fd5b50565b60008135905061258e81612568565b92915050565b600073ffffffffffffffffffffffffffffffffffffffff82169050919050565b60006125bf82612594565b9050919050565b6125cf816125b4565b81146125da57600080fd5b50565b6000813590506125ec816125c6565b92915050565b60008060006060848603121561260b5761260a612554565b5b60006126198682870161257f565b935050602061262a868287016125dd565b925050604061263b8682870161257f565b9150509250925092565b60006020828403121561265b5761265a612554565b5b60006126698482850161257f565b91505092915050565b61267b8161255e565b82525050565b60006020820190506126966000830184612672565b92915050565b600081519050919050565b600082825260208201905092915050565b6000819050602082019050919050565b6126d18161255e565b82525050565b6126e0816125b4565b82525050565b600081519050919050565b600082825260208201905092915050565b60005b83811015612720578082015181840152602081019050612705565b8381111561272f576000848401525b50505050565b6000601f19601f8301169050919050565b6000612751826126e6565b61275b81856126f1565b935061276b818560208601612702565b61277481612735565b840191505092915050565b60006101008301600083015161279860008601826126c8565b5060208301516127ab60208601826126d7565b5060408301516127be60408601826126c8565b50606083015184820360608601526127d68282612746565b91505060808301516127eb60808601826126c8565b5060a083015184820360a08601526128038282612746565b91505060c083015184820360c086015261281d8282612746565b91505060e083015184820360e08601526128378282612746565b9150508091505092915050565b6000612850838361277f565b905092915050565b6000602082019050919050565b60006128708261269c565b61287a81856126a7565b93508360208202850161288c856126b8565b8060005b858110156128c857848403895281516128a98582612844565b94506128b483612858565b925060208a01995050600181019050612890565b50829750879550505050505092915050565b600060208201905081810360008301526128f48184612865565b905092915050565b600080fd5b600080fd5b7f4e487b7100000000000000000000000000000000000000000000000000000000600052604160045260246000fd5b61293e82612735565b810181811067ffffffffffffffff8211171561295d5761295c612906565b5b80604052505050565b600061297061254a565b905061297c8282612935565b919050565b600067ffffffffffffffff82111561299c5761299b612906565b5b6129a582612735565b9050602081019050919050565b82818337600083830152505050565b60006129d46129cf84612981565b612966565b9050828152602081018484840111156129f0576129ef612901565b5b6129fb8482856129b2565b509392505050565b600082601f830112612a1857612a176128fc565b5b8135612a288482602086016129c1565b91505092915050565b60008060008060008060c08789031215612a4e57612a4d612554565b5b6000612a5c89828a016125dd565b965050602087013567ffffffffffffffff811115612a7d57612a7c612559565b5b612a8989828a01612a03565b9550506040612a9a89828a0161257f565b945050606087013567ffffffffffffffff811115612abb57612aba612559565b5b612ac789828a01612a03565b935050608087013567ffffffffffffffff811115612ae857612ae7612559565b5b612af489828a01612a03565b92505060a087013567ffffffffffffffff811115612b1557612b14612559565b5b612b2189828a01612a03565b9150509295509295509295565b60008060408385031215612b4557612b44612554565b5b6000612b538582860161257f565b9250506020612b64858286016125dd565b9150509250929050565b60008115159050919050565b612b8381612b6e565b82525050565b6000602082019050612b9e6000830184612b7a565b92915050565b600082825260208201905092915050565b6000612bc0826126e6565b612bca8185612ba4565b9350612bda818560208601612702565b612be381612735565b840191505092915050565b60006020820190508181036000830152612c088184612bb5565b905092915050565b612c19816125b4565b82525050565b600061010082019050612c35600083018b612672565b612c42602083018a612c10565b612c4f6040830189612672565b8181036060830152612c618188612bb5565b9050612c706080830187612672565b81810360a0830152612c828186612bb5565b905081810360c0830152612c968185612bb5565b905081810360e0830152612caa8184612bb5565b90509998505050505050505050565b600060208284031215612ccf57612cce612554565b5b6000612cdd848285016125dd565b91505092915050565b7f4e487b7100000000000000000000000000000000000000000000000000000000600052602160045260246000fd5b60038110612d2657612d25612ce6565b5b50565b6000819050612d3782612d15565b919050565b6000612d4782612d29565b9050919050565b612d5781612d3c565b82525050565b600060c082019050612d726000830189612c10565b612d7f6020830188612672565b612d8c6040830187612d4e565b8181036060830152612d9e8186612bb5565b9050612dad6080830185612672565b612dba60a0830184612672565b979650505050505050565b60008060408385031215612ddc57612ddb612554565b5b6000612dea8582860161257f565b925050602083013567ffffffffffffffff811115612e0b57612e0a612559565b5b612e1785828601612a03565b9150509250929050565b7f4f6e6c79207468652070617469656e742063616e20706572666f726d2074686960008201527f7320616374696f6e000000000000000000000000000000000000000000000000602082015250565b6000612e7d602883612ba4565b9150612e8882612e21565b604082019050919050565b60006020820190508181036000830152612eac81612e70565b9050919050565b7f5265717565737420616c72656164792070726f63657373656400000000000000600082015250565b6000612ee9601983612ba4565b9150612ef482612eb3565b602082019050919050565b60006020820190508181036000830152612f1881612edc565b9050919050565b7f4e487b7100000000000000000000000000000000000000000000000000000000600052601160045260246000fd5b6000612f598261255e565b9150612f648361255e565b9250817fffffffffffffffffffffffffffffffffffffffffffffffffffffffffffffffff0483118215151615612f9d57612f9c612f1f565b5b828202905092915050565b6000612fb38261255e565b9150612fbe8361255e565b9250827fffffffffffffffffffffffffffffffffffffffffffffffffffffffffffffffff03821115612ff357612ff2612f1f565b5b828201905092915050565b60006060820190506130136000830186612672565b6130206020830185612c10565b61302d6040830184612672565b949350505050565b7f4e487b7100000000000000000000000000000000000000000000000000000000600052603260045260246000fd5b7f4e487b7100000000000000000000000000000000000000000000000000000000600052602260045260246000fd5b600060028204905060018216806130ab57607f821691505b602082108114156130bf576130be613064565b5b50919050565b60006130d08261255e565b91507fffffffffffffffffffffffffffffffffffffffffffffffffffffffffffffffff82141561310357613102612f1f565b5b600182019050919050565b7f4e616d652063616e6e6f7420626520656d707479000000000000000000000000600082015250565b6000613144601483612ba4565b915061314f8261310e565b602082019050919050565b6000602082019050818103600083015261317381613137565b9050919050565b7f496e76616c696420616765000000000000000000000000000000000000000000600082015250565b60006131b0600b83612ba4565b91506131bb8261317a565b602082019050919050565b600060208201905081810360008301526131df816131a3565b9050919050565b600060e0820190506131fb600083018a612672565b6132086020830189612672565b818103604083015261321a8188612bb5565b90506132296060830187612672565b818103608083015261323b8186612bb5565b905081810360a083015261324f8185612bb5565b905081810360c08301526132638184612bb5565b905098975050505050505050565b60006040820190506132866000830185612672565b6132936020830184612c10565b9392505050565b7f416363657373206e6f74206772616e7465640000000000000000000000000000600082015250565b60006132d0601283612ba4565b91506132db8261329a565b602082019050919050565b600060208201905081810360008301526132ff816132c3565b9050919050565b7f50617469656e7420646f6573206e6f7420657869737400000000000000000000600082015250565b600061333c601683612ba4565b915061334782613306565b602082019050919050565b6000602082019050818103600083015261336b8161332f565b9050919050565b60006060820190506133876000830186612672565b6133946020830185612c10565b81810360408301526133a68184612bb5565b905094935050505056fea26469706673582212205e6a1f6c0774a016e12d3678f3df782b76c35a866ef3a188beea7efecb841a1164736f6c63430008080033",
  "linkReferences": {},
  "deployedLinkReferences": {}
}