{
	"_format": "hh-sol-artifact-1",
	"contractName": "MedicalRecord",
	"sourceName": "contracts/MedicalRecord.sol",
	"abi": [
		{
			"anonymous": false,
			"inputs": [
				{
					"indexed": false,
					"internalType": "uint256",
					"name": "patientId",
					"type": "uint256"
				},
				{
					"indexed": false,
					"internalType": "address",
					"name": "requester",
					"type": "address"
				},
				{
					"indexed": false,
					"internalType": "uint256",
					"name": "expirationTime",
					"type": "uint256"
				}
			],
			"name": "AccessApproved",
			"type": "event"
		},
		{
			"anonymous": false,
			"inputs": [
				{
					"indexed": false,
					"internalType": "uint256",
					"name": "patientId",
					"type": "uint256"
				},
				{
					"indexed": false,
					"internalType": "address",
					"name": "requester",
					"type": "address"
				}
			],
			"name": "AccessDenied",
			"type": "event"
		},
		{
			"anonymous": false,
			"inputs": [
				{
					"indexed": false,
					"internalType": "uint256",
					"name": "patientId",
					"type": "uint256"
				},
				{
					"indexed": false,
					"internalType": "address",
					"name": "requester",
					"type": "address"
				},
				{
					"indexed": false,
					"internalType": "string",
					"name": "reason",
					"type": "string"
				}
			],
			"name": "AccessRequested",
			"type": "event"
		},
		{
			"anonymous": false,
			"inputs": [
				{
					"indexed": false,
					"internalType": "uint256",
					"name": "recordId",
					"type": "uint256"
				},
				{
					"indexed": true,
					"internalType": "address",
					"name": "owner",
					"type": "address"
				},
				{
					"indexed": false,
					"internalType": "uint256",
					"name": "timestamp",
					"type": "uint256"
				},
				{
					"indexed": false,
					"internalType": "string",
					"name": "name",
					"type": "string"
				},
				{
					"indexed": false,
					"internalType": "uint256",
					"name": "age",
					"type": "uint256"
				},
				{
					"indexed": false,
					"internalType": "string",
					"name": "gender",
					"type": "string"
				},
				{
					"indexed": false,
					"internalType": "string",
					"name": "bloodType",
					"type": "string"
				},
				{
					"indexed": false,
					"internalType": "string",
					"name": "dataHash",
					"type": "string"
				}
			],
			"name": "MedicalRecords__AddRecord",
			"type": "event"
		},
		{
			"inputs": [
				{
					"internalType": "uint256",
					"name": "",
					"type": "uint256"
				},
				{
					"internalType": "address",
					"name": "",
					"type": "address"
				}
			],
			"name": "accessRequests",
			"outputs": [
				{
					"internalType": "address",
					"name": "requester",
					"type": "address"
				},
				{
					"internalType": "uint256",
					"name": "patientId",
					"type": "uint256"
				},
				{
					"internalType": "enum MedicalRecord.AccessStatus",
					"name": "status",
					"type": "uint8"
				},
				{
					"internalType": "string",
					"name": "reason",
					"type": "string"
				},
				{
					"internalType": "uint256",
					"name": "timestamp",
					"type": "uint256"
				},
				{
					"internalType": "uint256",
					"name": "expirationTime",
					"type": "uint256"
				}
			],
			"stateMutability": "view",
			"type": "function"
		},
		{
			"inputs": [
				{
					"internalType": "address",
					"name": "owner",
					"type": "address"
				},
				{
					"internalType": "string",
					"name": "name",
					"type": "string"
				},
				{
					"internalType": "uint256",
					"name": "age",
					"type": "uint256"
				},
				{
					"internalType": "string",
					"name": "gender",
					"type": "string"
				},
				{
					"internalType": "string",
					"name": "bloodType",
					"type": "string"
				},
				{
					"internalType": "string",
					"name": "dataHash",
					"type": "string"
				}
			],
			"name": "addPatient",
			"outputs": [],
			"stateMutability": "nonpayable",
			"type": "function"
		},
		{
			"inputs": [
				{
					"internalType": "uint256",
					"name": "patientId",
					"type": "uint256"
				},
				{
					"internalType": "address",
					"name": "requester",
					"type": "address"
				},
				{
					"internalType": "uint256",
					"name": "durationInDays",
					"type": "uint256"
				}
			],
			"name": "approveAccess",
			"outputs": [],
			"stateMutability": "nonpayable",
			"type": "function"
		},
		{
			"inputs": [
				{
					"internalType": "uint256",
					"name": "",
					"type": "uint256"
				},
				{
					"internalType": "address",
					"name": "",
					"type": "address"
				}
			],
			"name": "approvedAccess",
			"outputs": [
				{
					"internalType": "bool",
					"name": "",
					"type": "bool"
				}
			],
			"stateMutability": "view",
			"type": "function"
		},
		{
			"inputs": [
				{
					"internalType": "uint256",
					"name": "patientId",
					"type": "uint256"
				},
				{
					"internalType": "address",
					"name": "requester",
					"type": "address"
				}
			],
			"name": "denyAccess",
			"outputs": [],
			"stateMutability": "nonpayable",
			"type": "function"
		},
		{
			"inputs": [
				{
					"internalType": "uint256",
					"name": "_recordId",
					"type": "uint256"
				}
			],
			"name": "getAge",
			"outputs": [
				{
					"internalType": "uint256",
					"name": "",
					"type": "uint256"
				}
			],
			"stateMutability": "view",
			"type": "function"
		},
		{
			"inputs": [
				{
					"internalType": "uint256",
					"name": "_recordId",
					"type": "uint256"
				}
			],
			"name": "getBloodType",
			"outputs": [
				{
					"internalType": "string",
					"name": "",
					"type": "string"
				}
			],
			"stateMutability": "view",
			"type": "function"
		},
		{
			"inputs": [
				{
					"internalType": "uint256",
					"name": "_recordId",
					"type": "uint256"
				}
			],
			"name": "getGender",
			"outputs": [
				{
					"internalType": "string",
					"name": "",
					"type": "string"
				}
			],
			"stateMutability": "view",
			"type": "function"
		},
		{
			"inputs": [
				{
					"internalType": "uint256",
					"name": "_recordId",
					"type": "uint256"
				}
			],
			"name": "getName",
			"outputs": [
				{
					"internalType": "string",
					"name": "",
					"type": "string"
				}
			],
			"stateMutability": "view",
			"type": "function"
		},
		{
			"inputs": [
				{
					"internalType": "uint256",
					"name": "patientId",
					"type": "uint256"
				}
			],
			"name": "getPatientData",
			"outputs": [
				{
					"internalType": "uint256",
					"name": "",
					"type": "uint256"
				},
				{
					"internalType": "address",
					"name": "",
					"type": "address"
				},
				{
					"internalType": "uint256",
					"name": "",
					"type": "uint256"
				},
				{
					"internalType": "string",
					"name": "",
					"type": "string"
				},
				{
					"internalType": "uint256",
					"name": "",
					"type": "uint256"
				},
				{
					"internalType": "string",
					"name": "",
					"type": "string"
				},
				{
					"internalType": "string",
					"name": "",
					"type": "string"
				},
				{
					"internalType": "string",
					"name": "",
					"type": "string"
				}
			],
			"stateMutability": "view",
			"type": "function"
		},
		{
			"inputs": [],
			"name": "getRecordId",
			"outputs": [
				{
					"internalType": "uint256",
					"name": "",
					"type": "uint256"
				}
			],
			"stateMutability": "view",
			"type": "function"
		},
		{
			"inputs": [
				{
					"internalType": "uint256",
					"name": "_recordId",
					"type": "uint256"
				}
			],
			"name": "getTimeStamp",
			"outputs": [
				{
					"internalType": "uint256",
					"name": "",
					"type": "uint256"
				}
			],
			"stateMutability": "view",
			"type": "function"
		},
		{
			"inputs": [
				{
					"internalType": "uint256",
					"name": "patientId",
					"type": "uint256"
				},
				{
					"internalType": "address",
					"name": "entity",
					"type": "address"
				}
			],
			"name": "hasAccess",
			"outputs": [
				{
					"internalType": "bool",
					"name": "",
					"type": "bool"
				}
			],
			"stateMutability": "view",
			"type": "function"
		},
		{
			"inputs": [
				{
					"internalType": "uint256",
					"name": "",
					"type": "uint256"
				}
			],
			"name": "patients",
			"outputs": [
				{
					"internalType": "uint256",
					"name": "recordId",
					"type": "uint256"
				},
				{
					"internalType": "address",
					"name": "owner",
					"type": "address"
				},
				{
					"internalType": "uint256",
					"name": "timestamp",
					"type": "uint256"
				},
				{
					"internalType": "string",
					"name": "name",
					"type": "string"
				},
				{
					"internalType": "uint256",
					"name": "age",
					"type": "uint256"
				},
				{
					"internalType": "string",
					"name": "gender",
					"type": "string"
				},
				{
					"internalType": "string",
					"name": "bloodType",
					"type": "string"
				},
				{
					"internalType": "string",
					"name": "dataHash",
					"type": "string"
				}
			],
			"stateMutability": "view",
			"type": "function"
		},
		{
			"inputs": [],
			"name": "recordId",
			"outputs": [
				{
					"internalType": "uint256",
					"name": "",
					"type": "uint256"
				}
			],
			"stateMutability": "view",
			"type": "function"
		},
		{
			"inputs": [
				{
					"internalType": "uint256",
					"name": "patientId",
					"type": "uint256"
				},
				{
					"internalType": "string",
					"name": "_reason",
					"type": "string"
				}
			],
			"name": "requestAccess",
			"outputs": [],
			"stateMutability": "nonpayable",
			"type": "function"
		}
	],
	"bytecode": "0x608060405234801561001057600080fd5b506124de806100206000396000f3fe608060405234801561001057600080fd5b50600436106101005760003560e01c806393119a8311610097578063ced1419811610066578063ced141981461030a578063dab52a761461033a578063e06d2eb514610356578063f7dfe22b1461038657610100565b806393119a831461025057806399055dda14610287578063b5f8bbe9146102a5578063b810793e146102da57610100565b80635a39077c116100d35780635a39077c1461019d5780636747f391146101b95780636b8ff574146101e95780637d8e34f31461021957610100565b80630c7b5167146101055780630e37008a146101215780633eb4ac57146101515780635578a8501461016d575b600080fd5b61011f600480360381019061011a9190611957565b6103a4565b005b61013b600480360381019061013691906119aa565b610613565b60405161014891906119e6565b60405180910390f35b61016b60048036038101906101669190611b47565b610633565b005b61018760048036038101906101829190611c44565b610883565b6040516101949190611c9f565b60405180910390f35b6101b760048036038101906101b29190611c44565b6108b2565b005b6101d360048036038101906101ce91906119aa565b610af8565b6040516101e091906119e6565b60405180910390f35b61020360048036038101906101fe91906119aa565b610b18565b6040516102109190611d42565b60405180910390f35b610233600480360381019061022e91906119aa565b610bc0565b604051610247989796959493929190611d73565b60405180910390f35b61026a600480360381019061026591906119aa565b610ebe565b60405161027e989796959493929190611d73565b60405180910390f35b61028f611146565b60405161029c91906119e6565b60405180910390f35b6102bf60048036038101906102ba9190611c44565b61114f565b6040516102d196959493929190611e84565b60405180910390f35b6102f460048036038101906102ef91906119aa565b61124d565b6040516103019190611d42565b60405180910390f35b610324600480360381019061031f9190611c44565b6112f5565b6040516103319190611c9f565b60405180910390f35b610354600480360381019061034f9190611eec565b61151d565b005b610370600480360381019061036b91906119aa565b61175e565b60405161037d9190611d42565b60405180910390f35b61038e611806565b60405161039b91906119e6565b60405180910390f35b823373ffffffffffffffffffffffffffffffffffffffff166001600083815260200190815260200160002060010160009054906101000a900473ffffffffffffffffffffffffffffffffffffffff1673ffffffffffffffffffffffffffffffffffffffff1614610449576040517f08c379a000000000000000000000000000000000000000000000000000000000815260040161044090611fba565b60405180910390fd5b60006002600086815260200190815260200160002060008573ffffffffffffffffffffffffffffffffffffffff1673ffffffffffffffffffffffffffffffffffffffff1681526020019081526020016000209050600060028111156104b1576104b0611e0d565b5b8160020160009054906101000a900460ff1660028111156104d5576104d4611e0d565b5b14610515576040517f08c379a000000000000000000000000000000000000000000000000000000000815260040161050c90612026565b60405180910390fd5b60018160020160006101000a81548160ff0219169083600281111561053d5761053c611e0d565b5b021790555062015180836105519190612075565b4261055c91906120cf565b816005018190555060016003600087815260200190815260200160002060008673ffffffffffffffffffffffffffffffffffffffff1673ffffffffffffffffffffffffffffffffffffffff16815260200190815260200160002060006101000a81548160ff0219169083151502179055507f48ae3ba146201cdafd628e5f29e78614c4aad583007b13d64e161955bb59833e8585836005015460405161060493929190612125565b60405180910390a15050505050565b600060016000838152602001908152602001600020600401549050919050565b6000855111610677576040517f08c379a000000000000000000000000000000000000000000000000000000000815260040161066e906121a8565b60405180910390fd5b6000841180156106875750609684105b6106c6576040517f08c379a00000000000000000000000000000000000000000000000000000000081526004016106bd90612214565b60405180910390fd5b6000808154809291906106d890612234565b919050555060405180610100016040528060005481526020018773ffffffffffffffffffffffffffffffffffffffff1681526020014281526020018681526020018581526020018481526020018381526020018281525060016000805481526020019081526020016000206000820151816000015560208201518160010160006101000a81548173ffffffffffffffffffffffffffffffffffffffff021916908373ffffffffffffffffffffffffffffffffffffffff1602179055506040820151816002015560608201518160030190805190602001906107ba92919061180c565b506080820151816004015560a08201518160050190805190602001906107e192919061180c565b5060c08201518160060190805190602001906107fe92919061180c565b5060e082015181600701908051906020019061081b92919061180c565b509050508573ffffffffffffffffffffffffffffffffffffffff167f65683cb10ac70a7daad237d4a156ee8c0d0df65cf78d766f14c34e6736d08670600054428888888888604051610873979695949392919061227d565b60405180910390a2505050505050565b60036020528160005260406000206020528060005260406000206000915091509054906101000a900460ff1681565b813373ffffffffffffffffffffffffffffffffffffffff166001600083815260200190815260200160002060010160009054906101000a900473ffffffffffffffffffffffffffffffffffffffff1673ffffffffffffffffffffffffffffffffffffffff1614610957576040517f08c379a000000000000000000000000000000000000000000000000000000000815260040161094e90611fba565b60405180910390fd5b60006002600085815260200190815260200160002060008473ffffffffffffffffffffffffffffffffffffffff1673ffffffffffffffffffffffffffffffffffffffff1681526020019081526020016000209050600060028111156109bf576109be611e0d565b5b8160020160009054906101000a900460ff1660028111156109e3576109e2611e0d565b5b14610a23576040517f08c379a0000000000000000000000000000000000000000000000000000000008152600401610a1a90612026565b60405180910390fd5b60028160020160006101000a81548160ff02191690836002811115610a4b57610a4a611e0d565b5b021790555060006003600086815260200190815260200160002060008573ffffffffffffffffffffffffffffffffffffffff1673ffffffffffffffffffffffffffffffffffffffff16815260200190815260200160002060006101000a81548160ff0219169083151502179055507fc14f92ab7742ff4ef0fc5f742c674ac214ad556477ed325129ce3166489665508484604051610aea929190612308565b60405180910390a150505050565b600060016000838152602001908152602001600020600201549050919050565b6060600160008381526020019081526020016000206003018054610b3b90612360565b80601f0160208091040260200160405190810160405280929190818152602001828054610b6790612360565b8015610bb45780601f10610b8957610100808354040283529160200191610bb4565b820191906000526020600020905b815481529060010190602001808311610b9757829003601f168201915b50505050509050919050565b6000806000606060006060806060610bd889336112f5565b610c17576040517f08c379a0000000000000000000000000000000000000000000000000000000008152600401610c0e906123de565b60405180910390fd5b6000600160008b8152602001908152602001600020905080600001548160010160009054906101000a900473ffffffffffffffffffffffffffffffffffffffff168260020154836003018460040154856005018660060187600701848054610c7e90612360565b80601f0160208091040260200160405190810160405280929190818152602001828054610caa90612360565b8015610cf75780601f10610ccc57610100808354040283529160200191610cf7565b820191906000526020600020905b815481529060010190602001808311610cda57829003601f168201915b50505050509450828054610d0a90612360565b80601f0160208091040260200160405190810160405280929190818152602001828054610d3690612360565b8015610d835780601f10610d5857610100808354040283529160200191610d83565b820191906000526020600020905b815481529060010190602001808311610d6657829003601f168201915b50505050509250818054610d9690612360565b80601f0160208091040260200160405190810160405280929190818152602001828054610dc290612360565b8015610e0f5780601f10610de457610100808354040283529160200191610e0f565b820191906000526020600020905b815481529060010190602001808311610df257829003601f168201915b50505050509150808054610e2290612360565b80601f0160208091040260200160405190810160405280929190818152602001828054610e4e90612360565b8015610e9b5780601f10610e7057610100808354040283529160200191610e9b565b820191906000526020600020905b815481529060010190602001808311610e7e57829003601f168201915b505050505090509850985098509850985098509850985050919395975091939597565b60016020528060005260406000206000915090508060000154908060010160009054906101000a900473ffffffffffffffffffffffffffffffffffffffff1690806002015490806003018054610f1390612360565b80601f0160208091040260200160405190810160405280929190818152602001828054610f3f90612360565b8015610f8c5780601f10610f6157610100808354040283529160200191610f8c565b820191906000526020600020905b815481529060010190602001808311610f6f57829003601f168201915b505050505090806004015490806005018054610fa790612360565b80601f0160208091040260200160405190810160405280929190818152602001828054610fd390612360565b80156110205780601f10610ff557610100808354040283529160200191611020565b820191906000526020600020905b81548152906001019060200180831161100357829003601f168201915b50505050509080600601805461103590612360565b80601f016020809104026020016040519081016040528092919081815260200182805461106190612360565b80156110ae5780601f10611083576101008083540402835291602001916110ae565b820191906000526020600020905b81548152906001019060200180831161109157829003601f168201915b5050505050908060070180546110c390612360565b80601f01602080910402602001604051908101604052809291908181526020018280546110ef90612360565b801561113c5780601f106111115761010080835404028352916020019161113c565b820191906000526020600020905b81548152906001019060200180831161111f57829003601f168201915b5050505050905088565b60008054905090565b6002602052816000526040600020602052806000526040600020600091509150508060000160009054906101000a900473ffffffffffffffffffffffffffffffffffffffff16908060010154908060020160009054906101000a900460ff16908060030180546111be90612360565b80601f01602080910402602001604051908101604052809291908181526020018280546111ea90612360565b80156112375780601f1061120c57610100808354040283529160200191611237565b820191906000526020600020905b81548152906001019060200180831161121a57829003601f168201915b5050505050908060040154908060050154905086565b606060016000838152602001908152602001600020600601805461127090612360565b80601f016020809104026020016040519081016040528092919081815260200182805461129c90612360565b80156112e95780601f106112be576101008083540402835291602001916112e9565b820191906000526020600020905b8154815290600101906020018083116112cc57829003601f168201915b50505050509050919050565b60006003600084815260200190815260200160002060008373ffffffffffffffffffffffffffffffffffffffff1673ffffffffffffffffffffffffffffffffffffffff16815260200190815260200160002060009054906101000a900460ff16156115125760006002600085815260200190815260200160002060008473ffffffffffffffffffffffffffffffffffffffff1673ffffffffffffffffffffffffffffffffffffffff1681526020019081526020016000206040518060c00160405290816000820160009054906101000a900473ffffffffffffffffffffffffffffffffffffffff1673ffffffffffffffffffffffffffffffffffffffff1673ffffffffffffffffffffffffffffffffffffffff168152602001600182015481526020016002820160009054906101000a900460ff16600281111561143c5761143b611e0d565b5b600281111561144e5761144d611e0d565b5b815260200160038201805461146290612360565b80601f016020809104026020016040519081016040528092919081815260200182805461148e90612360565b80156114db5780601f106114b0576101008083540402835291602001916114db565b820191906000526020600020905b8154815290600101906020018083116114be57829003601f168201915b50505050508152602001600482015481526020016005820154815250509050428160a001511115611510576001915050611517565b505b600090505b92915050565b600073ffffffffffffffffffffffffffffffffffffffff166001600084815260200190815260200160002060010160009054906101000a900473ffffffffffffffffffffffffffffffffffffffff1673ffffffffffffffffffffffffffffffffffffffff1614156115c3576040517f08c379a00000000000000000000000000000000000000000000000000000000081526004016115ba9061244a565b60405180910390fd5b6040518060c001604052803373ffffffffffffffffffffffffffffffffffffffff1681526020018381526020016000600281111561160457611603611e0d565b5b815260200182815260200142815260200160008152506002600084815260200190815260200160002060003373ffffffffffffffffffffffffffffffffffffffff1673ffffffffffffffffffffffffffffffffffffffff16815260200190815260200160002060008201518160000160006101000a81548173ffffffffffffffffffffffffffffffffffffffff021916908373ffffffffffffffffffffffffffffffffffffffff1602179055506020820151816001015560408201518160020160006101000a81548160ff021916908360028111156116e6576116e5611e0d565b5b0217905550606082015181600301908051906020019061170792919061180c565b506080820151816004015560a082015181600501559050507fa964b0d5b0ae345368407279f158ce01fbdafd867ce29bc1a4cf30fef68fdd8c8233836040516117529392919061246a565b60405180910390a15050565b606060016000838152602001908152602001600020600501805461178190612360565b80601f01602080910402602001604051908101604052809291908181526020018280546117ad90612360565b80156117fa5780601f106117cf576101008083540402835291602001916117fa565b820191906000526020600020905b8154815290600101906020018083116117dd57829003601f168201915b50505050509050919050565b60005481565b82805461181890612360565b90600052602060002090601f01602090048101928261183a5760008555611881565b82601f1061185357805160ff1916838001178555611881565b82800160010185558215611881579182015b82811115611880578251825591602001919060010190611865565b5b50905061188e9190611892565b5090565b5b808211156118ab576000816000905550600101611893565b5090565b6000604051905090565b600080fd5b600080fd5b6000819050919050565b6118d6816118c3565b81146118e157600080fd5b50565b6000813590506118f3816118cd565b92915050565b600073ffffffffffffffffffffffffffffffffffffffff82169050919050565b6000611924826118f9565b9050919050565b61193481611919565b811461193f57600080fd5b50565b6000813590506119518161192b565b92915050565b6000806000606084860312156119705761196f6118b9565b5b600061197e868287016118e4565b935050602061198f86828701611942565b92505060406119a0868287016118e4565b9150509250925092565b6000602082840312156119c0576119bf6118b9565b5b60006119ce848285016118e4565b91505092915050565b6119e0816118c3565b82525050565b60006020820190506119fb60008301846119d7565b92915050565b600080fd5b600080fd5b6000601f19601f8301169050919050565b7f4e487b7100000000000000000000000000000000000000000000000000000000600052604160045260246000fd5b611a5482611a0b565b810181811067ffffffffffffffff82111715611a7357611a72611a1c565b5b80604052505050565b6000611a866118af565b9050611a928282611a4b565b919050565b600067ffffffffffffffff821115611ab257611ab1611a1c565b5b611abb82611a0b565b9050602081019050919050565b82818337600083830152505050565b6000611aea611ae584611a97565b611a7c565b905082815260208101848484011115611b0657611b05611a06565b5b611b11848285611ac8565b509392505050565b600082601f830112611b2e57611b2d611a01565b5b8135611b3e848260208601611ad7565b91505092915050565b60008060008060008060c08789031215611b6457611b636118b9565b5b6000611b7289828a01611942565b965050602087013567ffffffffffffffff811115611b9357611b926118be565b5b611b9f89828a01611b19565b9550506040611bb089828a016118e4565b945050606087013567ffffffffffffffff811115611bd157611bd06118be565b5b611bdd89828a01611b19565b935050608087013567ffffffffffffffff811115611bfe57611bfd6118be565b5b611c0a89828a01611b19565b92505060a087013567ffffffffffffffff811115611c2b57611c2a6118be565b5b611c3789828a01611b19565b9150509295509295509295565b60008060408385031215611c5b57611c5a6118b9565b5b6000611c69858286016118e4565b9250506020611c7a85828601611942565b9150509250929050565b60008115159050919050565b611c9981611c84565b82525050565b6000602082019050611cb46000830184611c90565b92915050565b600081519050919050565b600082825260208201905092915050565b60005b83811015611cf4578082015181840152602081019050611cd9565b83811115611d03576000848401525b50505050565b6000611d1482611cba565b611d1e8185611cc5565b9350611d2e818560208601611cd6565b611d3781611a0b565b840191505092915050565b60006020820190508181036000830152611d5c8184611d09565b905092915050565b611d6d81611919565b82525050565b600061010082019050611d89600083018b6119d7565b611d96602083018a611d64565b611da360408301896119d7565b8181036060830152611db58188611d09565b9050611dc460808301876119d7565b81810360a0830152611dd68186611d09565b905081810360c0830152611dea8185611d09565b905081810360e0830152611dfe8184611d09565b90509998505050505050505050565b7f4e487b7100000000000000000000000000000000000000000000000000000000600052602160045260246000fd5b60038110611e4d57611e4c611e0d565b5b50565b6000819050611e5e82611e3c565b919050565b6000611e6e82611e50565b9050919050565b611e7e81611e63565b82525050565b600060c082019050611e996000830189611d64565b611ea660208301886119d7565b611eb36040830187611e75565b8181036060830152611ec58186611d09565b9050611ed460808301856119d7565b611ee160a08301846119d7565b979650505050505050565b60008060408385031215611f0357611f026118b9565b5b6000611f11858286016118e4565b925050602083013567ffffffffffffffff811115611f3257611f316118be565b5b611f3e85828601611b19565b9150509250929050565b7f4f6e6c79207468652070617469656e742063616e20706572666f726d2074686960008201527f7320616374696f6e000000000000000000000000000000000000000000000000602082015250565b6000611fa4602883611cc5565b9150611faf82611f48565b604082019050919050565b60006020820190508181036000830152611fd381611f97565b9050919050565b7f5265717565737420616c72656164792070726f63657373656400000000000000600082015250565b6000612010601983611cc5565b915061201b82611fda565b602082019050919050565b6000602082019050818103600083015261203f81612003565b9050919050565b7f4e487b7100000000000000000000000000000000000000000000000000000000600052601160045260246000fd5b6000612080826118c3565b915061208b836118c3565b9250817fffffffffffffffffffffffffffffffffffffffffffffffffffffffffffffffff04831182151516156120c4576120c3612046565b5b828202905092915050565b60006120da826118c3565b91506120e5836118c3565b9250827fffffffffffffffffffffffffffffffffffffffffffffffffffffffffffffffff0382111561211a57612119612046565b5b828201905092915050565b600060608201905061213a60008301866119d7565b6121476020830185611d64565b61215460408301846119d7565b949350505050565b7f4e616d652063616e6e6f7420626520656d707479000000000000000000000000600082015250565b6000612192601483611cc5565b915061219d8261215c565b602082019050919050565b600060208201905081810360008301526121c181612185565b9050919050565b7f496e76616c696420616765000000000000000000000000000000000000000000600082015250565b60006121fe600b83611cc5565b9150612209826121c8565b602082019050919050565b6000602082019050818103600083015261222d816121f1565b9050919050565b600061223f826118c3565b91507fffffffffffffffffffffffffffffffffffffffffffffffffffffffffffffffff82141561227257612271612046565b5b600182019050919050565b600060e082019050612292600083018a6119d7565b61229f60208301896119d7565b81810360408301526122b18188611d09565b90506122c060608301876119d7565b81810360808301526122d28186611d09565b905081810360a08301526122e68185611d09565b905081810360c08301526122fa8184611d09565b905098975050505050505050565b600060408201905061231d60008301856119d7565b61232a6020830184611d64565b9392505050565b7f4e487b7100000000000000000000000000000000000000000000000000000000600052602260045260246000fd5b6000600282049050600182168061237857607f821691505b6020821081141561238c5761238b612331565b5b50919050565b7f416363657373206e6f74206772616e7465640000000000000000000000000000600082015250565b60006123c8601283611cc5565b91506123d382612392565b602082019050919050565b600060208201905081810360008301526123f7816123bb565b9050919050565b7f50617469656e7420646f6573206e6f7420657869737400000000000000000000600082015250565b6000612434601683611cc5565b915061243f826123fe565b602082019050919050565b6000602082019050818103600083015261246381612427565b9050919050565b600060608201905061247f60008301866119d7565b61248c6020830185611d64565b818103604083015261249e8184611d09565b905094935050505056fea264697066735822122036dc49221f92dae3f468ec0a43eeaf7894d1a5d2560b264e76c8f6d0688a565664736f6c63430008080033",
	"linkReferences": {},
	"deployedLinkReferences": {}
}